:020000040800F2
:10000000E80C0020A101000871400008013F000831
:1000100000000000000000000000000000000000E0
:100020000000000000000000000000007540000813
:100030000000000000000000734000087740000846
:10004000B3010008B3010008B3010008B3010008C0
:10005000B3010008B3010008B3010008B3010008B0
:10006000B3010008B3010008B3010008B3010008A0
:10007000451B0008B3010008B3010008B3010008E4
:10008000B301000825410008B3010008000000008A
:10009000B3010008B3010008B3010008B301000870
:1000A000B3010008B3010008B3010008B301000860
:1000B00065470008B3010008B3010008B301000858
:1000C00000F002F800F05CF812A030C808382418DC
:1000D0002D18AC4201D100F053F80FCCA246AB462C
:1000E0000CA730CF2D1B083F3F197C427F1E544484
:1000F0002D090426F441641EAC4201D300F040F8FF
:100100000126334200D0FB1A3343984754465D46DC
:10011000DFE700008C700000AC700000103A02D3E2
:1001200078C878C1FAD8520701D330C830C101D598
:1001300004680C6070470000704700000023002432
:1001400000250026103A01D378C1FBD8520700D30E
:1001500030C100D50B60704710B5662902D105F09B
:1001600029FD10BD002010BD1FB501F013F80400DB
:100170000020002105F0D8FBE0601FBD10B510BDC8
:1001800001F008FC1146FFF7EFFF04F07FFB01F0E0
:1001900020FC03B4FFF7F2FF03BC01F0CBFC00002E
:1001A0000748804707480047FEE7FEE7FEE7FEE70F
:1001B000FEE7FEE704480549054A064B7047000084
:1001C00021410008C1000008E8060020E80C0020DA
:1001D000E8080020E8080020FEB5044610460D4659
:1001E000184373D0A6468C460020A41A01469D41B0
:1001F00067D36646002701243D46B61A9D4102D3C7
:1002000013463A462124654676462F04360C3E4373
:100210002D0CB61A9D4104D3150C1B042B4312045C
:100220001034654676462F06360A3E432D0AB61A26
:100230009D4104D3150E1B022B4312020834654660
:1002400076462F0736093E432D09B61A9D4104D341
:10025000150F1B012B431201241D65467646AF077F
:10026000B6083E43AD08B61A9D4104D3950F9B00D6
:100270002B439200A41C65467646EF0776083E4362
:100280006D08B61A9D411AD392185B41641C16E0A2
:100290000018764665464941B71A9D410191009084
:1002A00009D36046B11A98418E4684460098019958
:1002B0000025401C6941DD0752082A435B08641E83
:1002C000E6D57246634603B0F0BDFFE720462843FB
:1002D00007D00020C0430146C046C04622462B46F8
:1002E000F1E700200146F7E70FB41CB5074B06AA5B
:1002F0007B4469460090059800F0EBFE00206946BB
:1003000000F0FAFE1CBC08BC04B01847050E000043
:10031000F3B50446002081B020622046E16888479A
:1003200000287AD0252802D06268A16871E0E168CF
:1003300020460025884706460020E0610746A06168
:100340002A2E0AD0304605F0D1FA002827D0B8006E
:100350000019303E0090866119E00298BA00121927
:1003600002C8916102902046E1688847012F064645
:1003700017D1E06900281FDA202085431CE000988F
:100380000A218069484300998019303888612046E5
:10039000E1688847064605F0A9FA0028EFD1012F49
:1003A0000AD02E2E08D12046E16888470646202034
:1003B00005437F1C022FC3DBA069002803DA4042FB
:1003C000A06101200543E80701D010208543002EDD
:1003D00023D030464138192803D80120C0020543F4
:1003E0002036204625603146029A1546FFF7B4FEB6
:1003F00000280BD0012806D0ED1DE808C000083009
:1004000002908AE709E02D1D029586E76268304672
:10041000A1689047206A401C7EE7206AFEBD00006C
:1004200030B5441C03E00178401C00290DD0810741
:10043000F9D10B4BDD0104C8D11A91432940FAD000
:10044000001B0A0603D0C01E30BD001B30BD0A04CD
:1004500001D0801E30BD0902FCD0401E30BD00001E
:1004600001010101D2B210B513029A1813049A18AF
:1004700000F001F810BD01E004C0091F0429FBD2FF
:100480008B0701D50280801CC90700D0027070471D
:1004900000290BD0C30702D00270401C491E02295C
:1004A00004D3830702D50280801C891EE3E7002263
:1004B000EEE70022DFE70000002203098B4273D33E
:1004C000030A8B4258D3030B8B423CD3030C8B4261
:1004D00021D312E003460B437FD4002243088B4212
:1004E00074D303098B425FD3030A8B4244D3030BBB
:1004F0008B4228D3030C8B420DD30902FF2212BA80
:10050000030C8B4202D31212090265D0030B8B42FB
:1005100019D300E0090AC30B8B4201D3CB03C01AE5
:100520005241830B8B4201D38B03C01A5241430BC0
:100530008B4201D34B03C01A5241030B8B4201D3B0
:100540000B03C01A5241C30A8B4201D3CB02C01A1B
:100550005241830A8B4201D38B02C01A5241430A93
:100560008B4201D34B02C01A5241030A8B4201D382
:100570000B02C01A5241CDD2C3098B4201D3CB0129
:10058000C01A524183098B4201D38B01C01A5241D8
:1005900043098B4201D34B01C01A524103098B42DC
:1005A00001D30B01C01A5241C3088B4201D3CB00C7
:1005B000C01A524183088B4201D38B00C01A5241AA
:1005C00043088B4201D34B00C01A5241411A00D25A
:1005D00001465241104670475DE0CA0F00D04942C3
:1005E000031000D3404253409C46002203098B4233
:1005F0002DD3030A8B4212D38901FC2212BA030ABB
:100600008B420CD3890192118B4208D3890192113C
:100610008B4204D389013AD0921100E08909C309C1
:100620008B4201D3CB01C01A524183098B4201D3C3
:100630008B01C01A524143098B4201D34B01C01AAE
:10064000524103098B4201D30B01C01A5241C30826
:100650008B4201D3CB00C01A524183088B4201D395
:100660008B00C01A5241D9D243088B4201D34B00B0
:10067000C01A5241411A00D2014652411046634607
:100680005B1001D34042002B00D5494270476346BE
:100690005B1000D3404201B50449002802DC491C2C
:1006A000084000E00846C046C04602BDFFFFFF7F8D
:1006B00070477047704700000246C80FC00781436B
:1006C0004B0030B54B405B009B0D20D01923DB065F
:1006D000C91801231B05994220DB0324A407042524
:1006E0001346AB400BD3002B04D1EB0613409B0009
:1006F000E34204D401246407002312195941FF2363
:100700001B0599420BD2C9000143500F09E0CB02EF
:1007100004D501430803024305D0054830BDFF213D
:10072000C905084330BD084607210905884330BD87
:100730000000C07FF0B50C46871A9C410D46861A12
:100740009D4103D2C01BA141D21963410D0D1F0D64
:10075000C94EEC1BAE435CD07F057F0D0026002FF9
:1007600051D02D05AC46A943DD020123ED0A1B053E
:100770001D4320231B1B24D41746E7403818714122
:100780002F46E740CC199D402818314661410C0D99
:1007900027D161449A4013D50023401C594152008F
:1007A0000ED14008400001224B005205D34207D32E
:1007B00005204007C14201D5B04900E0B0493046AC
:1007C000F0BD6B00002A00D001229A181F23203CA4
:1007D0001B1B01D5002302E0E540281871410C0DD8
:1007E000D7D0012424050919C407CD0740084908BA
:1007F000E40F28436144002CD5D00024401C614103
:100800009A40D0D1CDE76A05520DD9D1C90FC90799
:10081000D5E79C4D4E00002801D0012400E00024C3
:1008200034195F00002A01D0012600E00026BE191D
:10083000954FAC420CD8AE420AD8B44206D001253E
:100840006D05EC42BCD010461946F0BD9942FCD073
:1008500000203946F0BDF0B51FB40C460F46811A92
:100860009F412546861A9D4106D20125ED076F401E
:10087000401ABC4152187B41210D1E0D8D1BAC4608
:100880007D4D8D437ED075056D0D7CD00D05AE463A
:10089000AC431B031B0B794D52429D4120236646FE
:1008A0009B1B14D31746F74038180026009074415C
:1008B00060462F460741E41900989D40281866417C
:1008C00016D4714671189A4025D5012320E093185B
:1008D0002A466A415200002B00D0521C1E23203EA3
:1008E0009B1B002B61DD3541EE1728186641E8D5CA
:1008F000001876415B1C9A4000D3401C4B05F3184E
:100900001524E34010D3002B52D071467118D30F39
:10091000C01802D3491C05B0F0BD0123DB079A4281
:10092000F9D140084000F6E701225205B21801D182
:10093000002853D00123CC0ADB029943891E002AE8
:1009400008D1020C03D0020C0004103902E0024668
:10095000002020390023550B05D112020823550B26
:1009600001D152010D23550C01D112011B1DD50CD3
:1009700001D192009B1C150D01D152005B1C20255A
:10098000EE1A01E02CE022E00546F54015439840C0
:10099000CA1AE10769181305C918002ABBDA03202F
:1009A00040070818C10FC9070FE071466118B2E788
:1009B000F10740080843711071444A000CD001232C
:1009C0005B059A42A7D2C90FC9070020A3E74905D2
:1009D000490D26D1002001E00028F4D100219AE73A
:1009E000284D6600002801D0012100E00021711887
:1009F0005F00002A01D0012600E00026BE19224F28
:100A0000A94210D8AE420ED8B14208D001256D05DA
:100A1000E94206D01946A802414010467BE79C42B5
:100A200001D0214677E70020394674E710B50C461F
:100A30005C4005D50124E4076340FFF70CFF10BDBF
:100A4000FFF778FE10BD30B40C465C4004D501249D
:100A5000E407634030BC6DE630BCFCE670B50124B1
:100A6000E40761400D465D4002D4FFF763FE70BDB0
:100A70006340FFF7F0FE70BDFF0700000000F0FFCD
:100A80000000F07F0000E0FF0000F87F0121C905B1
:100A90000123411842001B06D3185B0E0AD0C11077
:100AA0000722D206891840075242D14201D552008E
:100AB00089187047090208D50146002A03D0C10FE2
:100AC000C9070020704710467047420202D000203C
:100AD00002497047072109050143F4E70000F87F48
:100AE000F0B5FF252D04C609C209FF2704462E4094
:100AF0000137CB093E4348402A402B400746002A95
:100B00006BD0002B69D0AA4267D0AB4265D00028D9
:100B100000DA32460125ED0529432C430902200263
:100B2000090AD21A4B0C7F24E31A434C000A7C4476
:100B3000E35C7D242404121914145B00A21888427B
:100B400001D3521C00E0400049420C465C43241192
:100B50005C43DB016415E318040A5C43C502200D05
:100B60000C4644436419250A5D432303EC0C0D46EF
:100B7000654300030019EB184C42A34201D35B18F4
:100B8000401CD4052018002B07D05B00C91804D3E3
:100B9000401C002901D1400840003F2189048A42BD
:100BA00009D3002A08DC1106090F04D003214907E4
:100BB0004018C00FC007F0BD01224100120689187D
:100BC0007F2252069142F6D205214907C84201D53B
:100BD0009010F0BDFF20C005F0BD002F00DA3246B6
:100BE0001648AA4207D2AB4205D21902090E17D005
:100BF000F80FC007F0BDFF2563002D06AB42F9D802
:100C00004900A942F6D8AB4201D1A942F2D0A9428B
:100C100001D1002101E061004908D0050843F0BD81
:100C20001102090EFBD0FF200243D005F0BD0A4699
:100C30000146104654E70000925000000000C07FBB
:100C40001F22030C02D10F2200041CD0030E01D17D
:100C50000002083A030F01D10001121F830F01D1D6
:100C60008000921E002801DB4000521ED205511860
:100C7000021251181922904004D3491C002801D1B6
:100C80004908490008467047C10FC90700D04042D3
:100C9000012292071143D3E701218907D0E710B55C
:100CA00000F07CFA006810BD10B5044600F076FA3A
:100CB000046010BDFFB50C461E468FB003CA0890F5
:100CC00009914F007D0D00D16D1E002108460020C6
:100CD000C0460321099A89050840002A03DA8200E8
:100CE000801840080840800D01280A9002DD00208D
:100CF000C0430A90089807430DD0F048F0492818DF
:100D000048430714189800281DD07542291E1DDD80
:100D10000A9842421BE01898012802D00020302196
:100D200004E00020F24305E02154401CB042FBDB0C
:100D300030460022189B002121540F998B600A60D5
:100D4000486013B0F0BDBD1B6D1CDFE70A9A002997
:100D500000DA69420BA800F0A7FA0BAB07CB03AB94
:100D600007C30899099800F00BFB6B4607C30146BF
:100D7000D4480918002D00910BDDD24903980A9A36
:100D800049424018002303A90390684600F068FD1B
:100D900008E003990A9A0023081803A903906846FB
:100DA00000F008FD6B4607C30004000C03D00020D0
:100DB000C043410800E01046189A002A03D00022E0
:100DC000009215461EE0751E05D400F0EBF9303296
:100DD00062556D1EF9D501220843079602D0002204
:100DE0007F1C04E02078302801D100227F1E002AD9
:100DF000069787D01EE0112D07DA00F0D3F93032C4
:100E000062556D1C02460A43F5D1084303D0009891
:100E1000002819D00EE00021681E05E0235C625C0A
:100E200063542254401E491C8142F7DBA81B401E1C
:100E300007950690079A18990020A0540F98079BD1
:100E4000069A81600CC07CE711260020189059E7B3
:100E5000D21DF0B50D460446D10893B0C90003C9B0
:100E60000C900D9104F016FD02460D98C00F01D0B4
:100E70002D2007E02068810701D52B2002E04007E4
:100E8000C00F4001032A0F9001D0072A05DB03465B
:100E90002946204600F0C4F90EE12078800601D5ED
:100EA000E76900E006272846652D04D0662814D09F
:100EB000672D69D12DE00020112F009001DB112357
:100EC00000E07B1C0CAA03A910A8FFF7F3FE119900
:100ED000002610987D1C0E9142E001203B460CAA92
:100EE000C0070B900120009003A910A8FFF7E2FEB5
:100EF000119D12981099002600280E9501D1781C9A
:100F00000D18781B02D446427D1C761EE81B00900B
:100F10003AE0012F00DA01270020112F009001DDB7
:100F2000112300E03B460CAA03A910A8FFF7C2FE5C
:100F300011993D46109800260E91217809070BD48F
:100F40000E99A94200DA0D4603A9012D04DD4A19C4
:100F5000203AD27F302A06D0B84201DA011D04DAE5
:100F6000012100910FE06D1EEFE7002802DC8619D9
:100F70002D1A03E0411CA94200DD0D46801B401CD8
:100F800000900120C0070B902078000705D400983E
:100F9000A84202DB0020C043009069460020C872CE
:100FA0000B98012102AF0337C907884225D00220E0
:100FB00010902B2011900B9800280BDA40420B90D8
:100FC0002D20119006E00B9800F09AFC30317F1E26
:100FD0000B9039701099481E00291090F3DC0B9883
:100FE0000028F0D111987F1E38702088000501D5A7
:100FF000452000E065207F1E387001A8C01BC01D81
:101000000B900F98002800D0012041190098C017BC
:1010100009180B980818A169081A401EA0612078C9
:10102000C00602D42046C046C0460F98002805D00E
:101030006268A1689047206A401C20622078C00640
:1010400025D52046C046C04621E0002E07DB0E987D
:10105000B04204DD03A86268805DA16802E06268B6
:10106000A16830209047206A761C401C20620098BE
:10107000401E002800900AD100F08CF8C068626819
:101080000168405CA1689047206A401C20622846A5
:101090006D1E0028D9DC07E062683878A1687F1CE3
:1010A0009047206A401C20620B99481E00290B9033
:1010B000F2DC2046C046C046032042E601FCFFFFAA
:1010C000104D0000E1DFFFFF01694A1C0261087852
:1010D000704700B58FB00291002105910549019339
:1010E00079440391114604906846FFF711F90FB057
:1010F00000BD0000E5FFFFFF0A681070521C0A6087
:101100007047000030B5C30D1906214A090E31D0D1
:10111000FF292FD000283ADB0102500201430120B1
:101120007D33C34000D24908012080071724091AE3
:101130002406490882102343FF252D064C00211A5E
:1011400004D4891A02D45400201800E02146520821
:101150005B19F3D51A220446944007D382068A42CB
:1011600003D180218030884300E08030C009D90558
:10117000081830BDFF2904D04100FAD0C00FC007C5
:1011800030BD410201D0104630BD0028FCDAFAE73C
:101190000000C07F004870474000002000487047B2
:1011A000200000200B4670B50246890780080843DE
:1011B00019469D08141AA94125090807054308097D
:1011C0002C194841250A01060D43010A2C194141F9
:1011D000200C0D0428430D0C00194D41002140192D
:1011E0004D41C00869070843E908840F8D00254375
:1011F000840024184D4124196D41121BAB4107E0B6
:101200000925ED432C11521963410024401C614112
:101210001C460A250026551BB441F1D270BD0000C2
:10122000F8B51F46044601230068DB020326014689
:101230001840072A05DB002801D017A506E017A5EE
:1012400004E0002801D016A500E016A51020814377
:101250002160A069C01E002FA06101D0401EA061C6
:101260002046C046C046002F09D038466268A168B3
:101270009047206A401C2062C01C206206E0206A61
:10128000FAE762682878A1686D1C9047761EF8D24C
:101290002046C046C046F8BD4E414E006E616E000D
:1012A000494E4600696E6600F7B516468AB0334867
:1012B00078446C4603467C33C06F5A689B680DC403
:1012C0002E487844763003AC0DC80DC43720C001D9
:1012D000081837211B30FFF7FDF805460C46803D06
:1012E0001B3C02D56442012000E000200027099049
:1012F00010E0E0070CD00C202049784379443246B6
:101300004C3941186846012300F054FA6B4607C374
:1013100064107F1C002CECD1184F7F442E3F16E048
:10132000E80712D02001C0190EC806910893079251
:101330000068F04201D1981908903246012306A9AD
:1013400003A800F037FA03AB07C36D10641C002D2F
:10135000E6D10998002806D032466946012303A841
:1013600000F07EFA05E001233246694603A800F04A
:1013700021FA0A9B07C30DB0F0BD000050490000E0
:10138000034640000A4610B5400D0BD00121C907A5
:101390000F24A40200191C0364082143540D2143A7
:1013A000D20207E000210120F2E7D40F49002143D7
:1013B0005200401E0029F8DADB0FDB07184310BD8E
:1013C000FFB50D46144685B04868516804F04AFAE6
:1013D00000910190A868A16804F044FA029103907A
:1013E000A868616804F03EFA029A121882420292DA
:1013F00001D2012000E00020019A0B18D218002829
:10140000019202D08A4202D903E08A4201D201202D
:1014100000E000200099081800906868A16804F0B6
:1014200021FA029A12188242029201D2012000E0AF
:101430000020019A0B18D2180028019202D08A428B
:1014400002D903E08A4201D2012000E00020009985
:1014500008180090286821684000490040084908A1
:101460004018FA49471814E001994000C90F084391
:101470000090019802994000C90F0843019002981A
:1014800003994000C90F08430290039840007F1E53
:10149000039000980028E7DA0898002801D0EC4E65
:1014A00000E00026B74201DA012000E00020002819
:1014B00004902AD0F71BF806C00E15D0029B2021FD
:1014C000091A039A8B401A430392029A019BC24065
:1014D0008B401A430292019A009BC2408B400099B4
:1014E0001A430192C14000917B110DD06F46032039
:1014F000C11A03D500218200B95003E08A0081009F
:10150000BA587A50401EF3D53746039802990028FE
:1015100000D00120014308980291002808460CD011
:10152000002800D001200199019A490508430121B2
:10153000D20AC902D202019200E001210E9B0122CF
:10154000D207012B02D0002B03D013E0002807D1D3
:1015500020E0904204D890420CD1019B0B4209D06C
:10156000019B5918019105D10099491C009101D1A5
:101570007F1C009200280DD0102108460020C04694
:101580000498002806D00F98002803D008210846A8
:101590000020C04628682168019B009A4840C10F7E
:1015A0000598C90739430EC009B0F0BDFFB587B033
:1015B000099A08980899536892684068896896461D
:1015C0000022039317469446089A12685300099A1A
:1015D0005B081268520052089A1A9E4BD4180A9A55
:1015E000002A01D0352200E0402206920022012389
:1015F00015460492DB07059324E0002D05D17546BE
:101600000346039E4D1BB34109D375466646039BB3
:10161000491B049D9841059B7519AC465F41634683
:101620003B4308D0059B049EDD0776082E435B08EC
:101630000496059301E0521E641EC50FED0749187C
:101640004041521C069B9A42D7DB002D04D17546BF
:10165000039A6B1A824101D203200CE0039A0B46D5
:101660006B404240134303D0014303D0012002E00A
:10167000022000E0002061460191002100970291C4
:101680000A99002905D0614640020143704B01913F
:1016900002E08007002302909C4201DA012000E072
:1016A000002007003AD01A1BD006C00E15D0029DAC
:1016B0002021019C091AC5408C402543029C8C4086
:1016C00000D001242543019C0295009DC4408D401B
:1016D00000992C430194C140009154111DD06D46D6
:1016E0000221002202290CD10320001B07E0002860
:1016F00004DB8600AE59002E00D00122401C0328D6
:10170000F5DB081B02D588002A5004E08000285829
:1017100010438A00A850491EE3D51C460A980028A9
:1017200002980CD0002800D001200199019A4905A7
:1017300008430121D20AC902D202019200E001212C
:10174000109B0122D207012B02D0002B03D013E003
:10175000002807D11FE0904204D890420CD1019B91
:101760000B4209D0019B5918019105D10099491CE0
:10177000009101D1641C009200280CD01021084671
:101780000020C046002F06D01198002803D0082161
:1017900008460020C04608980999019A009B0068F5
:1017A00009684840C10F0798C907214382600AC0F1
:1017B0000BB0F0BD00B585B0019300920A4601461A
:1017C000002302A8FFF7FCFD02A807C805B000BD72
:1017D000FFB50A461F4685B0079901930123009182
:1017E000014602A8FFF7ECFD02990398049ECA0F78
:1017F0004900D20700920F22490892028C1A002158
:10180000002800DB0C46450013486D08844214D3C1
:10181000079A002A04DA441E0026104DF64302E01F
:1018200004460D460E46102108460020C046002FF3
:1018300003D0042108460020C0462005E90A0843D9
:10184000009908436905F20A1143ADE602C0FFFFA3
:10185000013C0000FF3F0000FF070000FFFFFF7F8B
:1018600000B585B0019300920A460146002302A804
:10187000FFF79CFE02A807C8A8E7FFB50A461F4667
:1018800085B00799019301230091014602A8FFF753
:101890008DFE02990398049ECA0F4900D207009258
:1018A0000F22490892028C1A0021002800DB0C4606
:1018B000450011486D08844214D3079A002A04DABF
:1018C000441E00260D4DF64302E004460D460E462A
:1018D000102108460020C046002F03D004210846EE
:1018E0000020C0462005E90A08430099084369051D
:1018F000F20A114358E60000FF070000FFFFFF7FD8
:1019000001468008081A02091018020A1018020C71
:101910001018C008820012185200891A01E0401CF9
:101920000A390A29FBD2704710B5FF231B06440071
:101930009C421DD84C009C421AD80346124A0B43C5
:1019400007D4401A02D3EFF3008010BDEFF30080FC
:1019500010BD081A03D3EFF30080904305E0EFF3C6
:10196000008001219043C907084380F3008810BD1F
:101970000D231B041A4204D01146002000F08AF8FF
:1019800010BD00F09FF810BD0000009000487047A7
:10199000200000207546FFF7F9FFAE4605006946B6
:1019A0005346C008C000854618B020B5FEF702FCBB
:1019B00060BCB64600260027C0C5C0C5C0C5C0C5AE
:1019C000C0C5C0C5C0C5C0C5403D490849008D4619
:1019D000704710B50446C046C0462046FEF7D9FB06
:1019E00010BD000082078B079A423FD170B5920F5D
:1019F0000AD0032402780B78401C491C002A33D0FB
:101A00009A4231D12042F5D1214EF40104C808C9CF
:101A1000951B9543254018D19A420FD104C808C997
:101A2000951B9543254010D19A4207D104C808C997
:101A3000951B9543254008D19A42E7D012BA1BBAAC
:101A400001209A4200D2404270BD12BA1BBA2DBA90
:101A500018241000E0401900E140401A05D12E0082
:101A6000E64002D1083CF4D1D01A70BD02780B7860
:101A7000401C491C002A09D09A4207D102780B78F1
:101A8000401C491C002A01D09A42EFD0D01A70475E
:101A900001010101C80212D54803400F002804D0FB
:101AA000C803C043012188407047EFF30080000164
:101AB000000903210907084380F3008870470020CC
:101AC0007047000010B5024800F004F810BD000097
:101AD0000000C07F10B50C461107090F092904D07A
:101AE0000A290AD008290CD104E011460820FFF782
:101AF000D1FF06E0510606D501E0510601D50120CF
:101B0000C007214610BDD10607D501010909CC083F
:101B10004907000E0006044309E0410F200249076F
:101B2000000A0143200E00061D22D1410143084650
:101B3000E7E7000001491820ABBEFEE726000200DF
:101B40007047000080B5024800F006FA80BDC0462C
:101B5000B404002070B582B0044600688168032296
:101B60000A40012A02D10168C90747D18168264A83
:101B7000114208D0606D102101436165A16D012003
:101B80000143A16538E0816801220A438260B048C0
:101B90000068B04903F06BFD01900198002814D053
:101BA0000198401E0190019800280ED00198401E17
:101BB00001900198002808D00198401E01900198DA
:101BC000002802D00198401EE6E700F0B9FC054667
:101BD000206801680020C9070ED1064602E00068AF
:101BE000C0070ED100F0ACFC411B20680B29F6D3D6
:101BF0000168C907F3D1BDE702B070BD002002B093
:101C000070BD304602B070BD17000080F0B581B0E5
:101C10001D480068022810D11C4E306800280ED0E4
:101C2000012807D10020009014202D215A220F23D3
:101C300003F0A0F81C4803F0D5FA01B0F0BD142061
:101C40002D2103F0C5FA124F06CF12A0012423461E
:101C5000083F03F0EDFC0020014603F0B9FAAC4860
:101C60000068FEF713FF02460B460D4D0D4928464E
:101C7000FEF73AFB06CF2846234603F0D9FC30682E
:101C80000128CFD0D6E7C046AC040020A80400202D
:101C900000000020434C495050494E4700000000CE
:101CA000B40600209471000810050020F0B583B040
:101CB00004465020205C012802D1022003B0F0BD70
:101CC000264650360120307021688A6803273A4042
:101CD000012A02D10A68D20734D181225200636DF1
:101CE00093439A1C6265CA680292CA68BA43CA6082
:101CF0000190C0078A6802438A6000F021FC054613
:101D000020688168002910D500F01AFC411B20686A
:101D10000B29F6D381680029F3D5606D10210143AA
:101D2000022081436165019810E0029A3A40C1683F
:101D30001143C160606D012101430220814361654F
:101D4000002003E0616D20220A43626500213170AA
:101D500003B0F0BDF0B583B05022825C012A02D1FD
:101D6000022003B0F0BD04465034026893685B075C
:101D700024D40F684B683348384001263104019160
:101D800071040091B104314DAB421DD1936A83437C
:101D900093620F422C4D03D0F005296881432960DE
:101DA0000098074203D0B005296881432960019853
:101DB00007421DD031062868884318E0416D202273
:101DC0000A434265012014E0936A034393620F4281
:101DD0001D4D12D10098074203D0B0052968014378
:101DE00029600198074203D031062868084328601B
:101DF00000200021217003B0F0BDF00529680143E7
:101E0000296013480068134903F031FC0A2141435B
:101E1000029102980028DDD00298401E029002989C
:101E20000028D7D00298401E029002980028D1D0F6
:101E30000298401E029002980028CBD00298401EC3
:101E40000290E6E7FFFF07000827014001100000AD
:101E50001000002040420F0070B50168284A9142EE
:101E600000D070BD00F075F8FEF716FF2549086038
:101E700008682549FEF734FE244903F0DBFD2449B8
:101E800008600868FEF702FE224A234BFEF7CEFDEB
:101E9000FEF712FC214908600868096803F0CAFDD2
:101EA0001F4D286028681F4C216803F053FD2060F7
:101EB0001D4C2068401C20601C4801684E1C0660B8
:101EC00028681B4D296803F045FD286019488642A3
:101ED0000AD11948012505606903184800F022FB62
:101EE000002801D11648056020681649884202D1B1
:101EF00015480121016015480121016070BDC046EF
:101F000000240140A004002000F07F4533335340FB
:101F10009C040020666666666666FABFA40400201C
:101F200074060020D40600206C06002070060020F5
:101F3000D806002088130000880000200008005008
:101F4000AC060020102700008C0000209804002020
:101F500070470068006C7047F0B581B004460068B7
:101F6000056804212A460A405342534146683140DD
:101F70004A424A411A430123012A09D10822324028
:101F8000514251412A071A4600D50A46002A33D148
:101F90001F4621465431626DD20604D401225202FA
:101FA0000B6813430B60C2681205920F1AD12A07FF
:101FB00018D52022A35C002B14D183685B0708D4BA
:101FC00042680C239A434260FF2202320868904321
:101FD00005E0606D1043606521465831A06D012217
:101FE00002430A602046FFF737FFA06901283B46FD
:101FF00002D020680C2101608027314639404842D8
:1020000048412906194600D5014600290DD1012075
:102010000004616D01436165204600951D4600F096
:10202000F7F82B46009D2068076010273E4070425D
:102030007041E90603D4002B04D001B0F0BD034683
:10204000002BFAD1206B002803D02068C168C90793
:1020500009D0A06D02210143A165206807602046D8
:10206000FFF776FF2068076001B0F0BDF0B583B0E0
:102070000124002800D1C0E006465036416D0029F9
:1020800006D1002131708165054600F0C3F828466D
:10209000416DC90621D401688A6852071DD4812286
:1020A0005200436D93439A1C42658A6803252A4077
:1020B000534C012A02D10A68D20728D1426801266E
:1020C000F707504BBA4205D0B607B24202D0AD076F
:1020D000AA4209D10D4610350BE000213170416D47
:1020E00010220A43426588E00D691D400D61464B90
:1020F00025462E681E402E602B6813432B60CA684D
:1021000018239A43CA608268CB681343CB600346A6
:102110002033012255062668AE432660456B6D06C6
:1021200026682E4326608C68E40003D414078D686B
:1021300025438D600292CC68344D2540CD60046902
:10214000A41E65426541AC00C66826431D786C0339
:102150003443066B26431C7B640034438669C7699D
:10216000B6032643FC033443CE682643CE60476A59
:102170000E460C36FF240194C234A74204D03468C2
:10218000826A22433A4332605A78012A029F0DD173
:10219000002D07D0426D2023134343650646583671
:1021A0003B4600E03B0432681A4332600B69C26B65
:1021B000012A0ED1019A920093430B6104464034E8
:1021C0001CCC134323430A691A430A610B693B433E
:1021D00003E0DA0702D00B69BB430B614A690723AE
:1021E0009A434A61826B4B6913434B6100248465B7
:1021F000416D3943022291434165204603B0F0BD51
:1022000008270140FFFFFF3FFFFFC3FF1902FEFF4A
:1022100070470000B0B586B0002405940494039480
:102220000294019400681349884201D006B0B0BD01
:10223000114881680122019253020B4383600168B7
:102240001143016000681040009003940320029045
:1022500000980520000701A900F09EF80C252846EB
:102260002146224600F002FC284600F0F3FB06B0AF
:10227000B0BDC046002401402C10024070B5044699
:10228000006881680220490712D45021615C01294D
:102290000ED02546503501202870E169012908D06B
:1022A00006462046FFF756FC01463046002900D07E
:1022B00070BD606D0D490140012000020818606585
:1022C0000020A06521681C230B6028704A6864699F
:1022D000082C04D104239A434A604B6818221A43FD
:1022E0004A608A68042313438B6070BDFEF0FFFFD1
:1022F00010B5014624314A78022A12D102681368C7
:102300000E24A343136013680124A3431360026CDB
:10231000406C1C2303402046984050604C700020C5
:1023200002E00422C263012000220A7010BDB0B591
:10233000014624314A78022A18D1026813680E2413
:10234000A343136013680125AB431360026C436C15
:102350001C241C402B46A340536000240C704D707D
:10236000816B002900D088472046B0BD0421C1639D
:102370000120B0BDB0B5044600F0E2F80546601C8F
:1023800002D004480078241800F0DAF8401BA0427C
:10239000FAD3B0BD18000020F0B58AB007900B68E2
:1023A000002B00D1B3E00E465A480799814201D074
:1023B000062000E005200B210907079A52180A2180
:1023C000CA410192052A00D301900798203000905D
:1023D000002215461746029619460BE021434E4847
:1023E00001607F1C31680846F840121DAD1C0028B2
:1023F00000D18CE001231846B8400140F1D005938C
:1024000006920391324603263146A9400495CD43F6
:1024100051680C463440631E012B0895099110D871
:1024200007998B682B40D668049DAE401E438E6092
:10243000099AD306DB0FBB404E6886431E434E60AD
:1024400006E0032C049D03D13446029E069A1DE04B
:102450000799C868089A1040029EB368AB400343CE
:10246000CB60022C069A11D11C2010400F21814014
:10247000FB089B00009AD4588C433169814021436A
:10248000D150069A7068032409900440AC40079923
:102490000868089B18402043086009988003800F53
:1024A000059B9ED01D490868184308600C20104009
:1024B0000F21814003233C469C43194BE3588B4337
:1024C000019981401943164821501348816870686A
:1024D000C30202D5039C214301E0039CA1430E4BA0
:1024E0009960D968830201D5214300E0A1430A4BDA
:1024F000D9605968830301D5214300E0A143064B0D
:1025000059601968C00300D568E7A14367E70AB0BE
:10251000F0BDC046001C00500004014034100240D1
:102520000800014000690840411E88417047002AA8
:1025300002D0182281507047282281507047000035
:10254000014800687047C046E0060020B0B502466A
:10255000034640335C780220202C17D11C78012CD4
:1025600014D024205870106802680124A24302602D
:10257000220305689543056002680A43026001680A
:10258000214301600020187020215970B0BDB0B502
:102590000246034640335C780220202C17D11C7879
:1025A000012C14D024205870106802680124A24322
:1025B00002600F2212020568954309022943016057
:1025C0000168214301600020187020215970B0BDBE
:1025D000F0B581B0002822D0054640356978002941
:1025E00005D100212970044600F0B4F920462421C9
:1025F000697001680B68012293430B600F231B066F
:1026000044689C430C618C681C4B1C408C60846843
:10261000C668012E06D1D60334438C600CE001203D
:1026200001B0F0BD2127BF023C438C60022E03D1D4
:10263000D4024E68264302E0D4024E68A6434E60A0
:102640004C680F4E26434E60CC681C40CC6003693A
:1026500044691C4383691B022343CB60C369046A3A
:102660001C430C600B6813430B6000214164202263
:102670006A7001630846A97001B0F0BDFF7FFFFFDB
:1026800000800002F0B587B00446064640367578F3
:102690000220202D09D10C9D002D08D00D9F002F68
:1026A00005D004973778012F06D107B0F0BD01207F
:1026B0004102616407B0F0BD0293019205910120CF
:1026C000069003963070FFF73BFF06462168886945
:1026D000000436D40E9F2120039A50704020907041
:1026E000002000906064049860859448059A024038
:1026F0000298C0B20004059280184A68904B1340BB
:10270000C018904A801848606562009D656300E0CB
:1027100021688869800734D420463946324601F062
:10272000F1FB00287ED1781CF2D0FFF709FF216869
:10273000002F02D0801BB842EBD988698007E8D40B
:1027400069E00698C70302E088693842C2D01921BF
:102750002046324601F0D6FB002865D1FFF7F0FE97
:10276000801B21681A28EFD388693842ECD0606C4E
:10277000202108436064039A51700020107090700B
:1027800052E0029801282AD10198C0B2886200E084
:1027900021688869000614D420463946324601F083
:1027A000B1FB00283ED1781CF2D0FFF7C9FE2168AA
:1027B000002F02D0801BB842EBD988690006E8D40C
:1027C00029E0012042060492628D120A5E4A2ED050
:1027D0004B6813400A1D0292FF225C4D31E00198C4
:1027E000000A886200E0216888698007CCD420460E
:1027F0003946324601F086FB002813D1781CF2D00E
:10280000FFF79EFE2168002F02D0801BB842EBD953
:1028100088698007E8D4606C2021084360640398CD
:102820004170857003980570069807B0F0BD134697
:10283000628D4D681D40D3B21B042B430D1D0295C4
:10284000049D06902B4305980343029D2B6022852F
:10285000049D054300E021688869800714D4204660
:102860003946324601F04EFB0028DDD1781CF2D00B
:10287000FFF766FE2168002F02D0801BB842EBD91B
:1028800088698007E8D472E7606A02788A62628D9C
:10289000521E6285401C6062208D401E2085628D24
:1028A000002A31D0000401D02EE02168886900069A
:1028B00014D420463946324601F024FB0028B3D117
:1028C000781CF2D0FFF73CFE2168002F02D0801B5D
:1028D000B842EBD988690006E8D448E7608D000A61
:1028E00008D0FF2020854868174A1040059A1043F9
:1028F000164A07E0608D20854A68134B1A40C0B223
:102900000004284310434860608D0028A4D120466D
:102910003946324601F078FB00280698039D00D026
:10292000C3E620682021C1614268094B134043601F
:10293000697000982870A87007B0F0BDFF03000010
:10294000009800FC00200001009C00FC0000FF013A
:1029500000E800FE10B586B00021059104910391B6
:10296000029101910068114A904201D006B010BD59
:102970000F4C206802221043206020681040009015
:10298000042005900391122002900320049000027D
:1029900001900098074801A9FFF7FEFC01204005BF
:1029A000E1680143E16006B010BDC046005400403C
:1029B0002C100240000400501D48007802490A68AB
:1029C000101808607047C046E006002010B508489F
:1029D000016840220A4302600024204600F00AF801
:1029E000002801D0012010BD00F028F8204610BDBD
:1029F00000200240B0B504467D20C0000C49097893
:102A000002F035FE01460B48006802F030FE00F08F
:102A10006DFD0125032C09D8002807D10025E843C6
:102A200021462A4600F022F8034804602846B0BD3B
:102A300018000020100000201C000020044801683D
:102A4000012211430160110742680A434260704746
:102A500034100240002805D41F2108400121814084
:102A6000014801607047C04600E100E0002805D43D
:102A70000322034693430A4A9A1803E00C220240B9
:102A8000064BD2188007C00E8901C9B28140FF23CE
:102A900083401068984308431060704714ED00E0CD
:102AA00000E400E0F0B589B0066801252F02EA02D3
:102AB00011462031804B0E4200D1A1E005920890D2
:102AC0002907143B18680840049002D1186808438D
:102AD000186001930291794C206838420FD1206828
:102AE00038432060FFF72CFD06462068384206D1A7
:102AF000FFF726FD801B6428F7D903259DE00326F8
:102B000034056D484C38069001682140089B586890
:102B10000246039422400096340491420AD10246B0
:102B20002240A242069E0DD19A68039B1A40914210
:102B300005D107E001462140A142069E02D131683D
:102B400089037AD45C4B59680794214021D0079AB5
:102B50001040814203D00898007880060AD4089873
:102B60008068079A1040814213D008980068059940
:102B700008420ED05868E9045A680A435A605A68F5
:102B80008A435A600146079A91435960384200D0FF
:102B900082E00898066805990E42079C13D0826867
:102BA00011462140A1420BD10398024003231B058B
:102BB000069D2C689C43404B089814432C60079C4E
:102BC0005A680A435A60B10612D54268114621403C
:102BD000A1420AD10398024003231B05069D2C68DD
:102BE0009C43354B089814432C605A680A435A603A
:102BF0000499002904D1019C2168029A9143216023
:102C0000F1071DD1B10723D4710729D4310730D47E
:102C10003E4237D1710606D5012189061A688A43DA
:102C2000416A114319600025310606D503218A0443
:102C300019689143006A08431860284609B0F0BD3E
:102C4000196803229143C2680A431A60B107DBD5B1
:102C500019680C22914302690A431A607107D5D59D
:102C6000032189021A688A434169114319603107B7
:102C7000CED5032109031A688A438169114319607B
:102C80003E42C7D0032109041A688A43C16911432F
:102C900019607106C0D4C6E7FFF752FC0546864CA2
:102CA000054B5868800500D573E7FFF749FC401BCA
:102CB000A042F5D9009DC0E74C10024000700040D2
:102CC000F0B583B0002844D00E46029079480068E1
:102CD000012101910840864214D9764908680125EE
:102CE000A84330430860744CFFF72AFC074671483C
:102CF00000682840B04205D0FFF722FCC01BA0426C
:102D0000F5D923E0029D28688107794C05D5216813
:102D1000F0229143AA680A432260C0071CD165488B
:102D2000006801273840864224D262490868B843C7
:102D30000860614CFFF704FC05465E480068C00768
:102D400018D0FFF7FDFB401BA042F6D9032003B0CB
:102D5000F0BD012003B0F0BD6A6821460C39096856
:102D6000012A34D0032A2DD0022A72D18903019876
:102D70002BD52FE0029B186841075D4C06D5072133
:102D8000090222688A43D96811432160000707D5E8
:102D90000720C002216881431869C00008432060F1
:102DA00021680807820F6C487A44127952009744D0
:102DB0000154735B38042146083909680904490F36
:102DC000884069E08901019804D403B0F0BD490747
:102DD0000198FAD5216803200190814311432160B5
:102DE000FFF7AEFB07466868334D03282BD0022857
:102DF0001ED001280AD120680C21014004298ED060
:102E0000FFF79EFBC01BA842F5D909E02068000728
:102E1000800F00D183E7FFF793FBC01BA842F5D9D1
:102E2000019803B0F0BDFFF78BFBC01BA842F7D899
:102E300020680C2101400829F5D170E7FFF780FBDD
:102E4000C01BA842ECD820680C2101400C29F5D108
:102E500065E789050198B8D5BCE720460C380068BD
:102E6000C00612D53F4817E08A02120F3B4B9A5C0E
:102E70000902890F491C2368DB0309D420460C385A
:102E80000068C00603D5374802E0354804E03448FE
:102E90004243104602F0EBFB21680906090F074A7E
:102EA000515CC8401149086005480068FFF7A2FD61
:102EB00003B0F0BD0020024088130000985C0008B9
:102EC0001C00002009480068094909684905490FA4
:102ED000084A515CC84070470448006804490968C2
:102EE0008904490F034A515CC84070471000002014
:102EF0000C100240A85C000810B5804BD968080788
:102F0000820F15487A441279520097440108070D40
:102F10000120000459680904490F884010BD186851
:102F2000C00610D50F4810BD8A02120F0B4CA25CD0
:102F30000902890F491CDC68E40307D41868C0063D
:102F400003D5084802E0064810BD05484243104634
:102F500002F08DFB10BDC04600127A0078710008A7
:102F60000024F40000093D00F0B589B0002855D0D8
:102F7000624EF1680C220A40069201210591090473
:102F8000F76804910F4007900078C00710D00698AA
:102F9000082806D006980C2800D0D1E0002F00D1D8
:102FA000CEE03068800303D507984068002850D0F1
:102FB000079B1878800734D41878C0064CD407983B
:102FC0000078000764D407990878400700D597E097
:102FD0000878800600D51AE10798846A002C1AD078
:102FE00006980C2800D063E1012C32D0F068049AD6
:102FF0000240079BD96A8A422BD10F2189040140E4
:103000001A6B914225D1032189050840596B8842EA
:10301000059800D053E2002009B0F0BD012009B0AE
:10302000F0BDD868810604D5316820221143316093
:1030300090430699042906D006990C2900D0A5E0F2
:10304000002F00D0A2E03168002836D104221140C0
:1030500033D0059809B0F0BD01204402069900293B
:1030600000D1A9E03168079AD2690002002A00D194
:10307000FDE001433160FFF763FA05463068204206
:1030800000D004E1FFF75CFA401B0228F6D94DE1BD
:10309000306D07994969002900D1D7E00121084323
:1030A0003065FFF74DFA0546306D80078BD4FFF78A
:1030B00047FA401B0228F7D938E11F21090272683C
:1030C0008A431969090211437160316809229143E9
:1030D00001433160F1680807820FFA485200C04688
:1030E0007A4492885200974403002401DA013B019C
:1030F00070680004410F04988840D0E1001002403D
:1031000001221107B06B0840029002D1B06B084356
:10311000B063019103921402F14F3868C00523D4C3
:10312000386820433860FFF70BFA054638682042BC
:103130001AD1FFF705FA411B03206429F6D9BEE135
:10314000306807994968049A914209D0052212040F
:10315000914200D0CDE00599890408433060306881
:10316000049908433060D3E007988168306D039B71
:103170005F02002900D12BE105221202914200D109
:1031800020E1A14200D037E120433AE13168002834
:1031900000D1D3E00922914301433160FFF7D0F918
:1031A00005463068400700D502E1FFF7C9F9411B29
:1031B00003200229F5D982E13168214204D0079920
:1031C000C969002900D17AE1072040037168814371
:1031D000079B586A01437160FF21090672688A43A0
:1031E000196A090689187160400B04998140F068DA
:1031F0000006000FB74A105CC140B7480160B748ED
:103200000068FFF7F7FB002800D058E1D7E6B06868
:1032100007998969002900D1B4E001210843B06011
:10322000706B084370634803AF490A6802430A6041
:10323000FFF786F90546B068800700D5CCE6FFF7B2
:103240007FF9411B03200229F5D938E10121884388
:103250003065FFF775F90546306D800700D4B2E69A
:10326000FFF76EF9411B03200229F5D927E18143BD
:103270003160FFF765F905463068204200D19EE6CF
:10328000FFF75EF9411B03200229F5D917E107205A
:10329000400371688143079A506A08437060FF20B9
:1032A000000671688143106A00064018706086E667
:1032B0000120010632688A4332604706FFF740F971
:1032C0000546022C0AD13068384200D1C4E0FFF72D
:1032D00037F9411B03200229F5D9F0E03068384264
:1032E00000D198E6FFF72CF9411B03200229F5D9FC
:1032F000E5E0049A904330603068104008900898E8
:1033000005988004326882433260002900D193E03E
:1033100005984404FFF714F905463068204200D0B0
:1033200046E6FFF70DF9401B6428F6D9032009B0E3
:10333000F0BD3068C0067DD56548B0E0012081430E
:103340003160FFF7FDF8054630684007079B00D461
:1033500032E6FFF7F5F8411B03200229F4D9AEE06D
:103360008A02120F584B9A5C0902890F491CF368B4
:10337000049C234200D08EE03068C00600D489E06F
:10338000534888E001218843B060480356490A68E1
:1033900082430A60FFF7D4F80546B068800700D47E
:1033A0001AE6FFF7CDF8411B03200229F5D986E084
:1033B0001F20000271688143079B186900020843BF
:1033C0007060F9E5990208433065306D204318E0DC
:1033D000A04330659802316D81433165FFF7B0F845
:1033E0000546404C306D38421AD0FFF7A9F8411B12
:1033F0000320A142F6D962E0A04330659902306D06
:1034000088433065FFF79CF80546364C306D3842EE
:1034100006D1FFF795F8411B0320A142F6D94EE0F3
:1034200002980028079900D0D2E5B06B019A90432A
:10343000B063CDE5254832E005984404FFF780F8F5
:1034400005463068204200D1B2E5FFF779F8411B0C
:1034500003206429F5D932E0FD200004F16881439E
:10346000079B2C330DCB084310431843F0602948C9
:10347000401C316801433160FFF762F80446306850
:10348000384200D0C7E5FFF75BF8011B0320022993
:10349000F5D914E00D484243104602F0E8F8F1680F
:1034A0000906090F0B4A515CC8400B4908600B48DC
:1034B0000068FFF79FFA0028079B00D17CE509B060
:1034C000F0BDC04600127A00787100080024F400B4
:1034D00000093D00985C0008100000201C0000203E
:1034E000007000408813000020000140401E010EC3
:1034F00001D0012070470749074A50600748036818
:103500000B400321890759180160002090600721B2
:1035100011607047FFFFFF0010E000E020ED00E0C9
:1035200010B53822825C012A01D1022010BD02466A
:10353000383202235370006843687024A3430C6838
:103540001C4383684460604CA04207DC0124A4074C
:10355000A04209D05F4CA04206D00AE05B4CA042DA
:1035600002D05B4CA04204D18024A3434968194394
:103570008160002010700121517010BDB0B500288D
:1035800019D0054638356978002905D10021297000
:10359000044600F04DF820460221697001680C686D
:1035A000494B994209DC0122920791420BD0494ACA
:1035B000914208D015E00120B0BD444A914202D0AA
:1035C000434A91420DD1702294438268224399422A
:1035D0000ADC01239B0799420CD03E4B994209D04B
:1035E00024E022469942F4DD384B994202D0384B10
:1035F00099421BD103231B029A4303691343C268F8
:10360000CA6242688A620A68042414430C60012278
:103610004A618024A343406918430860AA71AA70D4
:10362000EA702A716A716A700020B0BD1346E6E73D
:1036300010B501680D48814208D0012082079142EF
:1036400012D10B490A6802430A6010BD084801689C
:1036500010220A4302601124002120460A46FFF787
:1036600005FA2046FFF7F6F910BDC04600100040ED
:10367000381002403921415C012912D1014639310B
:1036800002220A700068C26801210A43C2600E4A21
:10369000904208DC8A0790420BD00E4A904208D034
:1036A0000CE001207047094A904202D0084A90423B
:1036B00004D1826807231340062B02D002680A4314
:1036C000026000207047C046FF070140001401401F
:1036D0000008014000040040F0B53822825C012A55
:1036E00001D10220F0BD02463832022353704D4E04
:1036F0003346773B0468A0681840A0600D6800233B
:103700004F2D1FDC1F2D36DD202D38D0302D36D02B
:10371000402D00D083E0206A256A0126B54325624A
:10372000A569F026B543CE6836012E43A6610A2569
:10373000A843496801432162A06847210143302022
:10374000814366E06F2D22DD01204703BD4253D047
:103750000003854218465ED0702D60D1A0683040CD
:103760004D688E68C9682E43090231430143A16048
:10377000A06877214CE0002D01D0102D4FD1A0681A
:1037800070218843054307202843A06042E0502D64
:103790001BD0602D43D1256A1020C043266A064005
:1037A00026620F263603A769B743CE6836033E4329
:1037B000A661A026B5434968090129432162A16891
:1037C00067250D430540A56024E0206A256A01268F
:1037D000B5432562A569F026B543CE6836012E4370
:1037E000A6610A25A843496801432162A0685721C0
:1037F0000143202081430CE0A56835404E688F6866
:10380000C9683743090239432943A1608003A1688D
:103810000143A1601846137001215170F0BD0120D1
:10382000F9E7C046FF00FFFF7047F0B585B00446DA
:103830000068C5680227294639404A424A41016961
:10384000049139404B424B41134340210291C943FB
:103850000391002B13D103993E310161012121769F
:103860008069800703D02046FFF7DEFF05E0204691
:1038700000F094F8204600F092F80020207601260F
:1038800004222946114048424841049949073146DB
:1038900000D50146032000020190002916D10092B4
:1038A000206803993C3101612776806901990842BB
:1038B00003D02046FFF7B8FF05E0204600F06EF881
:1038C000204600F06CF800202076009A0827294650
:1038D00039404842484104990907314600D501461C
:1038E000002913D120680399383101612276C0691B
:1038F000800703D02046FFF797FF05E0204600F041
:103900004DF8204600F04BF8002020761021294089
:10391000484248410499C906314600D5014600296C
:1039200014D120680399303101612776C06901996B
:10393000084203D02046FFF777FF05E0204600F05D
:103940002DF8204600F02BF8002020760121294098
:10395000484248410499C907314600D00146002930
:1039600006D1206803993F310161204600F018F824
:1039700002980540684268410499490603D4002E24
:1039800004D005B0F0BD0646002EFAD12068039998
:103990000161204600F012F805B0F0BD7047704795
:1039A00080B50449884200D080BD0348FEF766FC1C
:1039B00080BDC046A4050020B404002070477047B5
:1039C00070477047F0B587B001210691CF023946A4
:1039D0002F310268D369194020394C1EA141156866
:1039E00020262C4604963440664266410E43966873
:1039F00054D0059080300390029739460F310B4226
:103A000007D0DE482840012731463940081800D049
:103A10008CE0102428462040474247410598006E1C
:103A20000128069900D13946D806069F00D50F46D1
:103A3000002F3AD00124A005064071427141D802FE
:103A4000069E00D50E46002E00D1E5E080202840DD
:103A5000414241411806069A00D50A46002A00D183
:103A60007FE140210D406A426A41580600D5069226
:103A70000698002800D07AE1EFF3108584F31088CF
:103A80000598026813688B43136085F31088002142
:103A9000C1660499C16700F025FA68E1816E0029CA
:103AA00000D164E1884707B0F0BD05990D4658354F
:103AB00014629068400600D5B5E0069468882988AD
:103AC0006A88002A00D152E1814200D14FE1EFF330
:103AD0001083012282F3108809256D01059C266858
:103AE0003768AF43376083F31088EFF3108382F3B6
:103AF00010882568AE689643AE6083F31088049BF7
:103B0000039D2B600023A3662366EFF3108382F3EB
:103B1000108822681568069EB543156083F31088E7
:103B200002226266081A81B22046C7E00197380275
:103B3000284046424641D80706980BD03046002818
:103B40000AD1019F1762039E70683843706098071E
:103B500004D40EE00028F4D098070AD5002908D034
:103B6000022010620398466800960426009F3E4398
:103B7000466058070AD5002908D00420106203982F
:103B8000466800960226009F3E43466021434E420F
:103B90004E411807069900D53146002905D1082065
:103BA0001062039E716801437160019EB00605407A
:103BB0006942694102980342069D00D00D46002DDE
:103BC000039D05D1029810626868049908436860F3
:103BD0006868002800D1CAE004980340614261414E
:103BE000002B00D0069106980028059806D1816E1A
:103BF000002903D0044688472046226869682823A4
:103C00000B40926840210A40D2185BD1FFF7D9FEE1
:103C10000020686007B0F0BD200510620598FFF72E
:103C2000CFFE07B0F0BD2A88486F0068436899B29C
:103C3000002900D18CE0914200D389E06B800068BC
:103C4000800634D4EFF31081012080F310884D4AB0
:103C50002032059F3B681E6816401E6081F3108865
:103C6000EFF3108180F310883A6893688343936080
:103C700081F31088EFF3108180F310883A6893681D
:103C80004026B343936081F310880499039A11602E
:103C900000213966EFF3108180F3108838680268DC
:103CA000A243026081F31088786FFEF721FB0221A6
:103CB000059841662A886988511A89B2FFF77FFE04
:103CC00007B0F0BDEFF3108586F31088092252018A
:103CD00003681C6894431C6085F31088EFF310841C
:103CE00086F3108802689368B343936084F3108866
:103CF000026E012A0AD1EFF3108586F3108802685C
:103D000013681024A343136085F31088049A039B5F
:103D10001A6000220266826602689268520628D5FE
:103D2000EFF3108486F31088026893688B439360E6
:103D300084F31088416F00291BD004461048886323
:103D40000846FEF7F4FA002811D0606F816BA9E6EF
:103D50008A420CD10068800609D502220598426685
:103D6000ACE70598C16E002901D005989AE607B026
:103D7000F0BDFFF726FE07B0F0BDC04620010004ED
:103D800035430008DFFEFFFFB0B500281DD0044614
:103D9000C06F002805D1782000212154204600F072
:103DA0002BF82420E067206801680125A943016001
:103DB000606A002802D0204600F0F0F9204600F0AA
:103DC000C1FA002803D02846B0BD0120B0BD0920AB
:103DD000C00221684A6882434A6088682A22904368
:103DE00088600868012202430A60204600F040FA19
:103DF00005462846B0BD0000B0B586B00024059445
:103E0000049403940294019400683B49884201D0D1
:103E100006B0B0BD01204104114AD3680B43D36002
:103E20001168014311601168014000910420059060
:103E3000032004900394022002900C20019000982B
:103E40000520000701A9FEF7A7FA1C2528462146F0
:103E50002246FEF70BFE2846FEF7FCFD06B0B0BD7D
:103E60002C100240F0B581B0C36F202B10D101237C
:103E700000292ED0002A2CD0856801242603B542C3
:103E800008D1CB0706D00369002B03D1234620E0DD
:103E900002231EE0009407465037044684347A809B
:103EA000002323603A80C1642121C167B54202D159
:103EB0000169002910D00A49009AC166EFF3108108
:103EC00082F310880068026880241443046081F340
:103ED0001088184601B0F0BD0049EDE761450008C3
:103EE000C145000800680449884200D07047034873
:103EF000002101707047C04600440040DC060020ED
:103F0000FEE70000F0B583B00D4604464030029055
:103F100021688869C00602D4002007463AE01020D4
:103F2000C8618869800631D416460120074680039F
:103F3000019002E08869800628D4681CFAD0FEF758
:103F4000FFFA2168002D02D0801BA842F2D94A68EE
:103F5000029880788B691B040BD5019B1A4008D10D
:103F6000202806D04868019A10434860FEF7E8FA16
:103F70000646216888698006DCD4FEF7E1FA801BDA
:103F80001928F6D921688869242003E02020C86117
:103F90000127042001258A69D30503D52B02CB61B3
:103FA00028432F466B02560506D41A420AD1002F29
:103FB0000BD1002003B0F0BDAD02CD610825284330
:103FC0001A4202D0CB61022210438A69920701D5BE
:103FD00000228A628A69D20703D18A6901231343C6
:103FE0008B614A68074B13404B60616C014361640D
:103FF000202002994870002008708870012003B0CA
:10400000F0BDC04600E800FEF0B583B0044600688D
:1040100080690027800628D415460E460297204660
:104020004030019005E08869800615D588698006D2
:1040300010D4204631462A46FFF764FF01270028A6
:1040400013D1FEF77DFA2168002EECD0401BB04260
:10405000ECD9E8E7029F08E0606C20210843606427
:10406000019A5170002010709070384603B0F0BD76
:10407000FEE77047704780B5FEF79EFC80BD0000EC
:1040800070B59EB010AC38212046FCF712FA00251E
:104090000F950E950D950C950B9501A82821FCF711
:1040A00008FA0326F0021D490A6882430120109095
:1040B000C302D2180A60B1041C9102211A91052191
:1040C0000904119181051D9100041B902046FEF703
:1040D0004BFF002803D0EFF3108072B6FEE70F9578
:1040E0000E950D950C960F200B900BA80121FEF755
:1040F000E7FD002803D0EFF3108072B6FEE70795C6
:1041000005950A20019001A8FEF7CCFC002803D0F9
:10411000EFF3108072B6FEE71EB070BD0070004075
:104120007047000080B50248FFF77FFB80BDC046A6
:10413000A405002010B5114C2068002804D10020EF
:1041400000F00CFE022020600020122101F040F857
:104150000B480068FCF79AFC02460B46094C0AA182
:104160002046FCF7C1F80B4806C80123204601F0A1
:104170005FFA094801F036F810BDC046AC040020D3
:1041800080000020B406002056726D733D20252E5D
:10419000326656000000002010050020B0B5416ACC
:1041A0000A070CD4CA0714D18A071CD44A0724D49E
:1041B000CA062CD48A0634D44A063CD44CE00122E8
:1041C000D20303685C689443426B22435A60CA0777
:1041D000EAD00122520403685C689443826A224355
:1041E0005A608A07E2D50122120403685C6894438E
:1041F000C26A22435A604A07DAD501229204036850
:104200005C689443026B22435A60CA06D2D50122ED
:10421000120303689C689443826B22439A608A0667
:10422000CAD50122520303689C689443C26B22439F
:104230009A604A0610D501221305026854689C430F
:10424000056C2C4354609D4206D103235B055468E2
:104250009C43436C23435360090607D50121C904DD
:10426000026853688B43806C18435060B0BD0000F7
:10427000F0B583B00446064678360025F560FEF7B3
:104280005FF903462068016809071ED50295284892
:10429000009001256905002220461F4600F0BCF968
:1042A00000280FD0EFF3108085F3108821680A688A
:1042B00080239A430A6080F31088032020227C2107
:1042C000029D30E020683B46029D0068400723D5F0
:1042D000174800900127B9050022204600F09CF9FC
:1042E000002819D0EFF3108087F3108809214901C5
:1042F000226813688B43136080F31088EFF31080FB
:1043000087F3108821688A68BA438A6080F310882E
:1043100003202022802106E02020E067B06025668F
:1043200064212A4628466250357003B0F0BDC0466D
:10433000FFFFFF0180B5806A5A2100224252FFF739
:1043400040FB80BDF0B581B0044601680868724A40
:104350000240A06823690343606918431043E2697F
:1043600010430860032630034B688343E06818431A
:104370004860A569694B994202D0206A284300E051
:1043800028460B252D028F68AF4307438F60644892
:10439000814210DD0027634881421DD0624881427E
:1043A0001AD06248814216D16248C06C8007000F63
:1043B00062A52F5810E05E48814205D099420AD18B
:1043C0005C48C06C000A01E05A48C06C0C250540EE
:1043D0005948475900E010270125E803994213D0B6
:1043E000824223D1082F00D990E0C0467F443F7914
:1043F0007F00BF440436408B4C8B8B8B6D00FEF7E7
:1044000061FD002864D180E0082F00D97EE0C0461D
:104410007F443F797F00BF44047919791F79797906
:104420004500FEF74FFD00283CD16EE0082F6DD807
:104430007F443F797F00BF44041924692F6969696B
:104440005C00FEF73FFD002853D15EE0394800686C
:10445000C00626D53E4825E0FEF74EFD002821D1B6
:1044600053E0FEF739FD002832D14EE0FEF734FD6F
:1044700000283ED149E02F480068C00627D53448BF
:1044800026E02C480068C00632D5314831E0FEF7FE
:1044900033FD00281CD138E0FEF72EFD002828D17E
:1044A00033E02A4862685643B0422FD31103884252
:1044B0002CD8010E56080002002380195941FBF741
:1044C0008BFE25494118254A91421CD31EE01F4806
:1044D000400061684A08101801F0C9F80246103A15
:1044E0001C498A4212D201400007400F08430AE0EB
:1044F000164861684A08101801F0B9F801461039E9
:10450000144A914202D22168C86000250020A066AA
:10451000E066284601B0F0BDF369FFEF00480040B7
:10452000FF4B0040004C004000500040003801406C
:1045300000440040001002408471000801000000A7
:104540000400000002000000080000000024F40045
:1045500000093D00F0FF000000FDFFFF00FD0F001F
:10456000B0B5C16F212910D15221415A00290DD077
:1045700001465231C26C1388104C1C4003689C6287
:10458000921CC2640888401E0880B0BDEFF3108101
:10459000012282F3108803681C688025AC431C60EC
:1045A00081F31088EFF3108182F3108800680268AD
:1045B00040231343036081F31088B0BDFF01000066
:1045C000B0B5C16F21290ED15221415A00290BD01B
:1045D000014652310268C36C1C7894625A1CC26452
:1045E0000888401E0880B0BDEFF31081012282F3DD
:1045F000108803681C688025AC431C6081F3108818
:10460000EFF3108182F3108800680268402313439F
:10461000036081F31088B0BDF0B585B004931546F2
:104620000F460368D9693940C91B4A424A410021F3
:1046300095425BD102910146783101910A9C01219A
:104640000091C902039106E0D9693940C91B4A4269
:104650004A4195424DD1611CF6D00646FDF770FFE8
:1046600001460320002C00D17AE0049A891AA14265
:1046700000D975E03046336819684907E4D5402F02
:10468000E2D0802FE0D0D969090735D4D969039ADF
:104690001142D9D003991962EFF31085012282F3F8
:1046A000108809214901064603681C688C431C6078
:1046B00085F31088EFF3108082F3108831688B68DF
:1046C00093438B6080F31088336E03202021012BED
:1046D0000AD1EFF3108382F3108832681468102532
:1046E000AC43146083F31088334631E0084605B0CC
:1046F000F0BD029805B0F0BD08211962EFF31080FB
:10470000009D85F310880922520133681C68944388
:104710001C6080F31088EFF3108085F310883268F6
:104720009368AB43936080F31088306E01280DD1FD
:10473000EFF31082012080F3108833681C68102585
:10474000AC431C60334682F3108801E033462846B0
:104750002022019CA26000221A669A662270E16003
:1047600005B0F0BD80B50248FFF72CF980BDC0460A
:10477000E4050020F0B581B000252846294600F068
:1047800027FD1B480068FCF781F902460B46194ECD
:1047900019493046FBF7A8FD2E4806C801243046CB
:1047A000234600F045FF154F38681549096801296F
:1047B0000ED100280CD10020322100F009FD114853
:1047C00030602B4806C80123304600F031FF08E076
:1047D000014307D10095322115220A23284600F013
:1047E000C9FA3C60284800F0FDFC01B0F0BDC046AD
:1047F0009C040020B406002094710008B00600203C
:10480000B00400203135780070B5002528462946CF
:1048100000F0DEFC0F4E06CE0FA001242346083E1A
:1048200000F006FF1221284600F0D2FC06CE0DA0B3
:10483000234600F0FDFE0A20322100F0C9FC0C489E
:1048400006C80CA0234600F0F3FE0F4800F0CAFC97
:1048500070BDC04600000020495445525054494E96
:104860004955000050524F4A454B544153000000F7
:1048700008000020416C64617320476963657669B4
:104880006369757300000000100500208EB0FEF70C
:104890009DF8FFF7F5FB00240A9409940894079407
:1048A0000694B7480168042211430160016801922F
:1048B00011400C910C99016880221143016001683C
:1048C000049211400C910C9901680126314301605A
:1048D000016831400C910C9901680222114301607A
:1048E0000068039210400C900C981F200290C101A8
:1048F000EC482246FDF71BFEEB48102739462246BE
:10490000FDF715FE0894212000040790700306901F
:1049100006ADE4482946FDF73FFD09940894079643
:104920003003059080380690DE482946FDF734FDB7
:1049300008940794F0030690052000072946FDF728
:104940002BFD0994089407960697D7482946FDF74A
:1049500023FDD648D649D74AB50705604260846032
:10496000C160046144610994089407940D940C9407
:10497000FEF704FE002803D0EFF3108072B6FEE7C6
:10498000049F05980690C94806A9FEF7A5FE0028D1
:1049900003D0EFF3108072B6FEE7C4480CA9FEF70F
:1049A000BFFD002803D0EFF3108072B6FEE7C248C7
:1049B00047616321C14A0260029A42608460C1601B
:1049C00007940694FEF7DAFD002803D0EFF3108079
:1049D00072B6FEE7B84806A9FEF7A2FD002803D08C
:1049E000EFF3108072B6FEE7B548B649B64A0260EA
:1049F000021D52C2046144618461C4610462FDF716
:104A0000E7FD002803D0EFF3108072B6FEE7AC4854
:104A10000021FDF79BFD002803D0EFF3108072B654
:104A2000FEE7A74800242146FDF7B1FD002803D08A
:104A3000EFF3108072B6FEE72C21A4484454A44939
:104A400084620484046344638463C46322C0046096
:104A5000446086600199C16004614461FF21C231F4
:104A6000C161079406940838FDF700FB002803D0C5
:104A7000EFF3108072B6FEE705980790069693480C
:104A800006A9FDF767F9002803D0EFF3108072B68E
:104A9000FEE705968F480C218F4A04624462E123A9
:104AA0005B021CC0046044608160C46004610C3817
:104AB000FFF76AF9002803D0EFF3108072B6FEE723
:104AC0007F4800F0A5F9FFF79FFE804D002428469F
:104AD0002146FDF7EBF82846FDF7D0FB7648FEF7B8
:104AE000C9FD7E4D7E487F49296068602846FBF7F6
:104AF00097FC82B277482946FFF7B4F9914A7B4D7B
:104B0000039F06E094480460924804600599864833
:104B1000016075480068002848D073480460286820
:104B200073494843734940180321C8417449884276
:104B300009D872480068022805D16F48006800282B
:104B400001D1FFF717FE6F4800686F4900F0C3FE00
:104B5000002806D16B4800686C4900F0B1FE0028BF
:104B600008D128686A4948436A494018F8416A49A7
:104B7000884207D9604800680128724A08D015E0C9
:104B80002C100240FDF742F805985B4908606D4A19
:104B900028685F4948435F494018F8415E498842A8
:104BA00004D8FDF733F8674A534804605B4800684F
:104BB000002835D05948046059480068FCF764F86B
:104BC0000146584E3068FBF78BFF00F096FE074613
:104BD00055480068FCF758F80146384600F02AFFAF
:104BE000524908600868FBF751FF02460B463B48F4
:104BF0004FA1FBF779FB5248007800280BD10598AC
:104C00004F490870354F3846FBF70AFC82B23148ED
:104C10003946FFF727F9346041480460039F494A49
:104C2000106800281CD014602868FCF72DF8014695
:104C3000454E3068FBF754FF00F05FFE07463A48E8
:104C40000068FCF721F801463846039F00F0F2FEA9
:104C50003E490860FFF76EFA3A4A3460234D2C60F3
:104C60003B480068002800D153E7394804602E48CB
:104C7000016838480068002808D1012906D1364863
:104C800004600120334908600F2140E7012802D168
:104C90000F2900D136E70028059900D137E7012810
:104CA000F2D036E7000800500004005064050020F0
:104CB000E7030000BF5D0000A405002000100040D5
:104CC000100500202F11600000540040B4040020A3
:104CD00000240140E4050020004400407806002044
:104CE000750D0A0068656C61980400206C06002050
:104CF000D578E926D8240601A8040020AC040020B9
:104D000036894100A004002000007F450000F041EA
:104D1000295C8FC250B81E05285C8F0288000020D5
:104D200070060020D8060020140000208400002017
:104D3000524D53203D20252E33660D0A0000000001
:104D4000DC0600208C000020D4060020800000201B
:104D5000AC060020B0040020B006002080B500287A
:104D600001D1024600E0FF22012081022748FBF723
:104D700079FB80BDF0B587B002930191002A40D045
:104D80000446101800900C9806901F480078414285
:104D90004141059102980199461807200490C001ED
:104DA0000390204604E0401CC4B20099A14228D9D7
:104DB0000299002901990D460CD1F4E72A01039BC1
:104DC0001A402243114B9D5CBD439D54491CCDB2FA
:104DD000AE42E8D947B2002FF8D4CFB23F2FF5D872
:104DE0000A46049B1A4001279740069A059B9A425F
:104DF000E4D12A01039B1A402243F44B9D5C3D43BE
:104E0000E3E707B0F0BDC046940000209800002002
:104E1000F0B5A3B005466420FDF7ACFA22A8AE2198
:104E200001700A21209101260090019602917821BB
:104E3000002428460F461F9122461E943346FDF754
:104E400021FC1D9022A8202119910170009001964B
:104E5000209802902846394622463346FDF712FC38
:104E60001C9022A810211691017000900196209CA0
:104E700002942F4628461F9D29461E9A3346FDF769
:104E800001FC1B9022A8B0210170009001960294B1
:104E90003846219729461E9C22463346FDF7F2FBF1
:104EA0001A9022A8C821017000900196209D0295B9
:104EB00038461F9F394622463346FDF7E3FB1890DC
:104EC00022A80470009001960295219D284639463B
:104ED00022463346FDF7D6FB179022A8169901709B
:104EE0000090019620980290284639462246334683
:104EF000FDF7C8FB169022A8402101700090019692
:104F0000209D02952198394622463346FDF7BAFB8B
:104F1000159022A881210170009001960295219D93
:104F20002846394622463346FDF7ACFB149022A8AA
:104F3000FF21017000900196209802902846394682
:104F400022463346FDF79EFB139022A8A121017053
:104F500000900196209D02952198394622463346BD
:104F6000FDF790FB129022A8A621017000900196F7
:104F70000295219D2846394622463346FDF782FB9D
:104F8000119022A8A821017000900196209802900B
:104F90002846394622463346FDF774FB109022A876
:104FA0003F21017000900196209D0295219839467D
:104FB00022463346FDF766FB0F9022A8A42101701C
:104FC000009001960295219D284639462246334697
:104FD000FDF758FB0E9022A8D32101700090019696
:104FE000209802902846394622463346FDF74AFB70
:104FF0000D9022A8047000900196209D02952198A2
:10500000394622463346FDF73DFB0C9022A8D521B8
:105010000170009001960295219D2846394622464E
:105020003346FDF72FFB0B9022A8F0210170009072
:105030000196209802902846394622463346FDF7CD
:1050400021FB0A9022A8D921017000900196209D91
:1050500002952198394622463346FDF713FB099005
:1050600022A822210170009001960295219D2846D8
:10507000394622463346FDF705FB089022A8DA217F
:1050800001700090019620980290284639462246E9
:105090003346FDF7F7FA079022A81221017000901D
:1050A0000196209D02952198394622463346FDF708
:1050B000E9FA069022A8DB21017000900196029582
:1050C0002C46219D284639461E9F3A463346FDF719
:1050D000D9FA059022A819990170009001960294BE
:1050E00028461F9C21463A463346FDF7CBFA1990D5
:1050F00022A88D21017000900196209D0295219893
:1051000021463A463346FDF7BDFA049022A8142101
:105110000170009001960295219821463A463C463E
:105120003346FDF7AFFA22A9AF220A70009101962B
:1051300002951D991C9A51181B9A89181A9A891858
:10514000189A8918179A8918169A8918159A891819
:10515000149A8918139A8918129A8918119A891819
:10516000109A89180F9A89180E9A89180D9A891819
:105170000C9A89180B9A89180A9A8918099A891819
:10518000089A8918079A8918069A8918059A891819
:10519000199A8918049A89180F1821981F9922467C
:1051A00025463346FDF76EFA38430CD101208102C3
:1051B0002F48FBF77EF9219800F014F807482E4697
:1051C000058007480580304623B0F0BD98000020D8
:1051D000024A1180024908807047C04692000020B0
:1051E00090000020F0B58BB007900025204F03956C
:1051F0000597B020284308A908700A2006900126C8
:1052000000910196029078210491079C2046039F0B
:105210003A463346FDF736FA09A807700090019622
:10522000069802902046049C21463A463346FDF7F4
:1052300029FA0AA8102101700090019606980290A0
:10524000079821463A46059F3346FDF71BFA64202E
:105250008021009701910290402207982146334611
:10526000FDF710FA80376D1C082DC1D10BB0F0BDD1
:1052700098000020F0B598B01593E94B1B88CCB28C
:1052800010930894E51800247F2D00D9C4E1E54B64
:105290001E880B0ADFB20596BB193F2B00D9BBE174
:1052A00000950290002F00D1B2E10C4615994842BA
:1052B0004841DD4909784B1E0D469D4145400B95FF
:1052C0004842484114900320044007940898001B6A
:1052D0000C900298203878434000101804901098E1
:1052E000811C0191401C0390012041030D91810319
:1052F0000E911190C0030F9000200990CB490697A2
:105300000AE012990840E05421460998401C069F83
:105310000990B84200D17BE108980028F5D00B46EF
:10532000099A500004990C5A059810180721014059
:10533000119A8A40FF21139251401291C6B238212E
:1053400001400801179008980428169409D20027F4
:10535000194607980028D8D03F2E00D9C7E0002270
:10536000C6E000270A97194608E012990840E05461
:105370002146169C3F1D0C98B842EAD03F2E11984A
:1053800000D80A98109AD319DDB2EA0902430F989F
:10539000F84020420CD0002A1AD117980543485DE6
:1053A000159A0C4614998A420DD1139908430CE0C2
:1053B000002A0DD117980543485D0B9A002A0BD09F
:1053C000139A10430AE01299084060552146169C32
:1053D0003F2E06D8002205E0129A104048553F2E75
:1053E000F8D90122581CC5B2E80910430E9AFA40B8
:1053F00022420CD000281AD117980543485D159A0F
:105400000C4614998A420DD1139908430CE00028E8
:105410000DD117980543485D0B9A002A0BD0139ABB
:1054200010430AE01299084060552146169C3F2E11
:1054300006D8002205E0129A104048553F2EF8D9B0
:105440000122981CC5B2E80910430D9AFA40224285
:105450000CD000281AD117980543485D159A0C46C0
:1054600014998A420DD1139908430CE000280DD1FC
:1054700017980543485D0B9A002A0BD0139A1043E6
:105480000AE01299084060552146169C3F2E06D826
:10549000002205E0129A104048553F2EF8D901220B
:1054A000D81CC3B2D80910432246BA40D2040ED544
:1054B000002800D05EE717980343C85C159A0C4695
:1054C00014998A4200D050E7139908434FE7002807
:1054D00000D04FE717980343C85C0B9A002A02D00C
:1054E000139A104301E0129A1040C85442E7012277
:1054F00010983818C3B2D80910430F9AFA402242C4
:105500000CD000281ED117980343C85C159A0C468E
:1055100014998A420DD1139908430CE0002811D147
:1055200017980343C85C0B9A002A08D0139A1043BB
:1055300007E012990840E0542146169C02E0129AB6
:105540001040C8540798012800D1DEE63F2E01D84C
:10555000002200E0012203983818C3B2D809104392
:105560000E9AFA4022420CD000281ED1179803430D
:10557000C85C159A0C4614998A420DD113990843B8
:105580000CE0002811D117980343C85C0B9A002A3D
:1055900008D0139A104307E012990840E0542146BE
:1055A000169C02E0129A1040C8540798022800D1B5
:1055B000ABE63F2E01D8002200E001220198381806
:1055C000C3B2D80910430D9AFA4022420ED00028E7
:1055D00000D09AE617980343C85C0C461599149AB4
:1055E000914200D08DE6139908438CE6002800D044
:1055F0008BE617980343C85C0A460B99002902D032
:105600001399084301E012990840D05411467CE6F2
:10561000034800990180029C204618B0F0BDC046A6
:1056200090000020920000209400002098000020AC
:10563000F0B581B00E46074600780021002813D04F
:105640001C4615460091C0B231462A462346FFF754
:1056500011FE01463878814207D178787F1C0028F6
:10566000F1D1009801B0F0BD084601B0F0BD43088B
:105670008B421AD3002203098B4279D3030A8B424F
:105680005ED3030B8B4242D3030C8B4227D3090218
:10569000FF2212BA030C8B4202D31212090203D06A
:1056A000030B8B4233D31AE0D3E0411A8041401CF4
:1056B000704703460B4371D443088B42F5D3002255
:1056C00003098B4254D3030A8B4239D3030B8B4219
:1056D0001DD3030C8B4202D394466EE0090AC30B20
:1056E0008B4201D3CB03C01A5241830B8B4201D3AF
:1056F0008B03C01A5241430B8B4201D34B03C01A98
:105700005241030B8B4201D30B03C01A5241C30A0F
:105710008B4201D3CB02C01A5241830A8B4201D380
:105720008B02C01A5241430A8B4201D34B02C01A6A
:105730005241030A8B4201D30B02C01A5241CDD20F
:10574000C3098B4201D3CB01C01A524183098B425A
:1057500001D38B01C01A524143098B4201D34B0143
:10576000C01A524103098B4201D30B01C01A5241A6
:10577000C3088B4201D3CB00C01A524183088B422D
:1057800001D38B00C01A524143088B4201D34B0016
:10579000C01A5241411A524110007047CA0F00D03E
:1057A0004942031000D34042534000229C46030963
:1057B0008B422DD3030A8B4212D38901FC2212BAE9
:1057C000030A8B420CD3890192118B4208D38901C1
:1057D00092118B4204D3890137D0921100E08909DC
:1057E000C3098B4201D3CB01C01A524183098B42BA
:1057F00001D38B01C01A524143098B4201D34B01A3
:10580000C01A524103098B4201D30B01C01A524105
:10581000C3088B4201D3CB00C01A524183088B428C
:1058200001D38B00C01A5241D9D243088B4201D315
:105830004B00C01A5241411A00D201465241104653
:1058400063465B1000D34042704763465B1000D351
:10585000404201B50021004201D0C9430846C0467C
:10586000C04602BDF8B5040C8BB2264682B25E4338
:10587000104658430D0C370C36040021801916468B
:1058800079416E43370C36048019264679416E43C0
:105890008919F8BD4900CA020243100000D0042053
:1058A0004A0D01D001221043044A490D914201D111
:1058B00002210843012800D105207047FF0700009E
:1058C00010B500F08DF8EFF30080800001D50120C5
:1058D00010BD002010BD10B500F082F8EFF300807D
:1058E0004000800F012800D0002010BD30380A2869
:1058F00001D2012070470020704770B50546FBF7C4
:1059000001FC41000446FF204908C005411AC90FA7
:1059100007D069004908401AC00F02D10120FBF7E7
:10592000C3F9204670BD000010B500290AD00878E0
:10593000002807D005487844FCF754F8002801D027
:10594000002010BD0248784410BD00008A180000F5
:105950008218000070B50125ED0704004C4020D4EA
:10596000441A01D2001B0919C60D4B00F2B2FF2ADE
:1059700029D01B0E2CD000020C0228432C43D31A32
:10598000DC40051910D2280A02D3401C6D0611D044
:10599000761EF6058019FF2A00DA70BDC00DC0051D
:1059A00070BD694000F0A4F801200543C541521CB8
:1059B000761CE8E764089C40C90161408900E7D192
:1059C0000124A043E4E71B0E440200D0034870BD4D
:1059D000002AFCD1C00FC00770BD00BF0000C07F0F
:1059E0000123DB0502000A430DD4DA4203D49A42B4
:1059F00007D488427047D84214D4D94212D488427E
:105A0000704780427047DA4203D59A42F9D5814205
:105A100070475B004200DA4204D24A00DA4201D207
:105A20008142704710B5024AFBF77EFF10BD00BFF0
:105A30000900130470B5420064414B005C41120E32
:105A400039D01B0E38D0FF2A3CD0FF2B3AD0D218C9
:105A50007F3A40024902400A490A4518ED01060012
:105A60004E43000A090A48430104731A4019190CED
:105A70004318990F04D05B08012149075B1A521C97
:105A8000D80904D3401CF50301D19D0607D0FF2A95
:105A900008D2D50506D0E4072043401970BD012582
:105AA000A843F4E7002A01DCE00770BD2402FF20D0
:105AB0002043C00570BD1B0EFF2A03D0FF2B01D071
:105AC000E00770BDFF2636064500B54206D84D00FA
:105AD000B54203D8D218FF2A00D0E7E7004870BDCE
